:100000000C94A1000C94C9000C94C9000C94C90074
:100010000C94C9000C94C9000C94C9000C94C9003C
:100020000C94C9000C94C9000C94C9000C94A50749
:100030000C94C9000C94C9000C94C9000C94C9001C
:100040000C9403070C94C9000C9473070C944D078F
:100050000C94C9000C94C9000C94C9000C94C900FC
:100060000C94C9000C94C900084AD73B3BCE016EE2
:1000700084BCBFFDC12F3D6C74319ABD56833DDAFF
:100080003D00C77F11BED9E4BB4C3E916BAAAABE0E
:10009000000000803F05A84CCDB2D44EB93836A937
:1000A000020C50B9918688083CA6AAAA2ABE000074
:1000B00000803F004E414E494E495459494E46CD6D
:1000C000CCCC3D0AD7233C17B7D13877CC2B32950F
:1000D00095E6241FB14F0A000020410000C84200ED
:1000E000401C4620BCBE4CCA1B0E5AAEC59D7400B7
:1000F00000000800020100000304070000000000E7
:1001000000000000000000250028002B0000000077
:1001100000240027002A0004040404040404040248
:100120000202020202030303030303010204081094
:100130002040800102040810200102040810200061
:10014000610811241FBECFEFD8E0DEBFCDBF11E0A4
:10015000A0E0B1E0E8EFF8E202C005900D92A23B0A
:10016000B107D9F724E0A2EBB1E001C01D92A035A0
:10017000B207E1F710E0C1EAD0E004C02197FE0128
:100180000E947811C03AD107C9F70E94BE080C94AA
:100190007A140C94000090E0FC01E55DFE4F249180
:1001A000895E9E4FFC018491882399F090E0880F2E
:1001B000991FFC01E35FFE4FA591B491FC01ED5F37
:1001C000FE4F859194918FB7F894EC91E22BEC93CC
:1001D0008FBF08958F929F92AF92BF92FF920F931D
:1001E0001F93CF93DF93F0904B042BE02F1508F46F
:1001F0004CC020914D0408E512E0021B110927FDB7
:100200001395000F111F000F111F20914C04C8E817
:10021000D0E0C21BD10927FDD395CC0FDD1FCC0F39
:10022000DD1F4E010D2E000CAA08BB089801012EFF
:10023000000C440B550B281939094A095B09DC01EC
:100240000E941E1124EB30E040E050E00E94F410C8
:10025000820E931EA41EB51E8C169D062CF0E8017E
:10026000801691060CF4E4012297CC0FDD1F2FB706
:10027000F8948F2D90E0FC01EE0FFF1FE80FF91F9F
:10028000EA5DFB4FD283C1832FBFDF91CF911F91D6
:100290000F91FF90BF90AF909F908F90089590E046
:1002A000FC01E151FF4F2491FC01E55DFE4F3491CB
:1002B000FC01E95EFE4FE491EE23C9F0222339F000
:1002C000233001F1A8F4213019F1223029F1F0E0B6
:1002D000EE0FFF1FED5FFE4FA591B4918FB7F8941D
:1002E000EC91611126C030953E233C938FBF089559
:1002F0002730A9F02830C9F0243049F780918000D8
:100300008F7D03C0809180008F7780938000DFCF46
:1003100084B58F7784BDDBCF84B58F7DFBCF809193
:10032000B0008F778093B000D2CF8091B0008F7DE6
:10033000F9CF3E2BDACF3FB7F894809185039091A7
:100340008603A0918703B091880326B5A89B05C0BA
:100350002F3F19F00196A11DB11D3FBFBA2FA92F44
:10036000982F8827BC01CD01620F711D811D911D41
:1003700042E0660F771F881F991F4A95D1F70895AD
:10038000AF92BF92CF92DF92EF92FF920F931F93A3
:10039000CF93DF936C017B018B01040F151FEB01E1
:1003A0005E01AE18BF08C017D10759F06991D60198
:1003B000ED91FC910190F081E02DC6010995892B0A
:1003C00079F7C501DF91CF911F910F91FF90EF90C9
:1003D000DF90CF90BF90AF900895FC01538D448D76
:1003E000252F30E0842F90E0821B930B541710F0E0
:1003F000CF96089501970895FC01918D828D9817ED
:1004000061F0A28DAE0FBF2FB11D5D968C91928DC4
:100410009F5F9F73928F90E008958FEF9FEF0895F5
:10042000FC01918D828D981731F0828DE80FF11DBE
:10043000858D90E008958FEF9FEF0895FC01918DD9
:10044000228D892F90E0805C9F4F821B91098F73D2
:100450009927089589E893E00E941E0221E0892BE4
:1004600009F420E0822F089580E090E0892B29F0A4
:100470000E942A0281110C9400000895FC01A48DB1
:10048000A80FB92FB11DA35ABF4F2C91848D90E0B6
:1004900001968F739927848FA689B7892C93A08999
:1004A000B1898C91837080648C93938D848D981323
:1004B00006C00288F389E02D80818F7D80830895B6
:1004C000EF92FF920F931F93CF93DF93EC0181E0A4
:1004D000888F9B8D8C8D98131AC0E889F98980814B
:1004E00085FF15C09FB7F894EE89FF896083E8897E
:1004F000F98980818370806480839FBF81E090E070
:10050000DF91CF911F910F91FF90EF900895F62EFC
:100510000B8D10E00F5F1F4F0F731127E02E8C8D96
:100520008E110CC00FB607FCFACFE889F9898081DB
:1005300085FFF5CFCE010E943E02F1CFEB8DEC0F8F
:10054000FD2FF11DE35AFF4FF0829FB7F8940B8FF8
:10055000EA89FB8980818062CFCFCF93DF93EC0162
:10056000888D8823B9F0AA89BB89E889F9898C919B
:1005700085FD03C0808186FD0DC00FB607FCF7CF57
:100580008C9185FFF2CF808185FFEDCFCE010E9457
:100590003E02E9CFDF91CF9108954F925F926F9223
:1005A0007F928F929F92AF92BF92CF92DF92EF9203
:1005B000FF920F931F93CF93DF938091EE028111EF
:1005C0003EC18091ED02811143C09091EC02809177
:1005D000EB02981709F433C11092DE021092DF0289
:1005E0001092E0021092E1021092DA021092DB0205
:1005F0001092DC021092DD021092D6021092D70205
:100600001092D8021092D902E091EB02C2E1CE9F83
:10061000F0011124EA54FE4F648585E00E944F01E9
:10062000E091EB02CE9FF0011124EA54FE4F658564
:1006300086E00E944F0181E08093ED020E949B01C1
:100640006093B2017093B3018093B4019093B501AC
:100650000E949B01E091EB020091B2011091B30165
:100660002091B4013091B5016B017C01C01AD10A0F
:10067000E20AF30A42E14E9FF0011124EA54FE4FD0
:100680000685178520893189C016D106E206F30652
:1006900008F4D5C06093B2017093B3018093B401A4
:1006A0009093B5010091EB0210E0409FE001419F63
:1006B000D00D1124CA54DE4F8C809D80AE80BF8047
:1006C0008091DA029091DB02A091DC02B091DD0210
:1006D000880E991EAA1EBB1E8092DA029092DB023F
:1006E000A092DC02B092DD02C884D984EA84FB8443
:1006F0008091D6029091D702A091D802B091D902F0
:10070000C80ED91EEA1EFB1EC092D602D092D70296
:10071000E092D802F092D902488059806A807B80AA
:1007200084149504A604B7040CF4B2C061E082E01E
:100730000E944F0184189508A608B7088092DA0233
:100740009092DB02A092DC02B092DD028C858823BD
:1007500009F486C08091E7029091E802A091E90235
:10076000B091EA020196A11DB11D8093E70290931A
:10077000E802A093E902B093EA02C414D504E604A7
:10078000F7047CF161E083E00E944F01C418D508B2
:10079000E608F708C092D602D092D702E092D802BB
:1007A000F092D90282E1809FF001819FF00D112427
:1007B000EA54FE4F8585882309F45EC08091E302E8
:1007C0009091E402A091E502B091E6020196A11D8C
:1007D000B11D8093E3029093E402A093E502B093ED
:1007E000E60283E090E00197F1F760E082E00E948A
:1007F0004F0160E083E00E944F018091DE02909102
:10080000DF02A091E002B091E1020196A11DB11DAD
:100810008093DE029093DF02A093E002B093E102A6
:1008200084159505A605B70554F01092ED02809148
:10083000EB0290E001968F7099278093EB02DF9195
:10084000CF911F910F91FF90EF90DF90CF90BF90CD
:10085000AF909F908F907F906F905F904F90089592
:100860008091E7029091E802A091E902B091EA023A
:100870000197A109B10979CF8091E3029091E40237
:10088000A091E502B091E6020197A109B109A1CFBB
:10089000C414D504E604F7040CF074CFAECFFC0109
:1008A00001900020E9F73197AF01481B590BBC01BB
:1008B00089E893E00C94C0018F929F92AF92BF920F
:1008C0000F931F93CF93DF93CDB7DEB7A1970FB6EA
:1008D000F894DEBF0FBECDBF19A2423008F44AE043
:1008E0008E010F5D1F4F842E912CB12CA12CA501E0
:1008F00094010E94D210E62FB901CA01EA30F4F443
:10090000E05DD801EE938D01232B242B252B79F765
:1009100090E080E0109719F0CD010E944F04A1965D
:100920000FB6F894DEBF0FBECDBFDF91CF911F9100
:100930000F91BF90AF909F908F900895E95CE1CFA9
:10094000CF93DF930E944F04EC0189E191E00E9474
:100950004F048C0F9D1FDF91CF9108958AE590E0A1
:100960000E94EA008CE191E00C94A0044F925F9207
:100970006F927F928F929F92AF92BF92CF92DF92AF
:10098000EF92FF920F931F93CF936B017C01742E14
:10099000AC019B010E945A14882399F08BE291E0EC
:1009A000CF911F910F91FF90EF90DF90CF90BF906C
:1009B000AF909F908F907F906F905F904F900C942E
:1009C0004F0446015701E894B7F82FEF3FEF4FE788
:1009D0005FE7C501B4010E945A1481110DC02FEFC9
:1009E0003FEF4FE75FE7C501B4010E949B0F181668
:1009F0001CF48FE291E0D4CF2FEF3FEF4FE75FE49D
:100A0000C701B6010E94C81318161CF483E391E0D5
:100A1000C7CF2FEF3FEF4FE75FECC701B6010E9452
:100A20009B0F87FDF3CF20E030E0A901C701B6019D
:100A30000E949B0F10E000E087FF0AC06DE289E88A
:100A400093E00E9460028C01F7FAF094F7F8F094BA
:100A5000C0E060E070E080E09FE37C1641F020E0C1
:100A600030E040E251E40E947912CF5FF6CFA70157
:100A700096010E947F112B013C010E94F2124B0152
:100A80005C014AE00E945C047C01E00EF11ECC2374
:100A9000C1F1C501B4010E94A00F9B01AC01C301CB
:100AA000B2010E947E114B015C016EE289E893E085
:100AB0000E946002E80EF91EC15018F120E030E0FB
:100AC00040E251E4C501B4010E9401102B013C0138
:100AD0000E94F2124B01B12CA12C4AE0C501B401D5
:100AE0000E945C04E80EF91EC501B4010E94A00F2B
:100AF0009B01AC01C301B2010E947E114B015C015C
:100B0000DBCFC701CF911F910F91FF90EF90DF9046
:100B1000CF90BF90AF909F908F907F906F905F909D
:100B20004F9008952F923F924F925F926F927F92D3
:100B30008F929F92AF92BF92CF92DF92EF92FF92ED
:100B40000F931F93CF93DF93CDB7DEB72E970FB6DA
:100B5000F894DEBF0FBECDBF49015A01E982FA8287
:100B60000B831C832090EC02312C2FEF221A320AC7
:100B70003FE0232233242091EB02221509F429C1FE
:100B800020E030E040EA52E40E9401100E94D513B8
:100B90006D837E838F83988720E030E040EA52E4C3
:100BA000C501B4010E9401100E94D51369877A879C
:100BB0008B879C878091F3029091F402A091F502BB
:100BC000B091F6024D805E806F807884481A590A91
:100BD0006A0A7B0A8091EF029091F002A091F102E3
:100BE000B091F20289849A84AB84BC84881A990AF1
:100BF000AA0ABB0A411451046104710431F481143E
:100C00009104A104B10409F4E2C00091EC0210E0E7
:100C10007301620177FE07C0CC24DD247601C4187D
:100C2000D508E608F70882E1809FF001819FF00D6A
:100C30001124EA54FE4FC482D582E682F782D501A0
:100C4000C401B7FE07C088279927DC0188199909D4
:100C5000AA09BB0922E1209FF001219FF00D112478
:100C6000EA54FE4F80879187A287B38721E014144E
:100C70001504160417040CF020E0248722E1209FBD
:100C8000F001219FF00D1124EA54FE4F21E01814C9
:100C900019041A041B040CF020E02587C816D90695
:100CA000EA06FB0614F46C017D0182E1809FF001ED
:100CB000819FF00D1124EA54FE4FC082D182E2825E
:100CC000F38220E030E040E85FE369817A818B8144
:100CD0009C810E949B0F87FF08C080E090E0A8ECF9
:100CE000B2E489839A83AB83BC83C301B2010E94BF
:100CF000A20F20E030E040EA52E40E9479122B017A
:100D00003C01C501B4010E94A20F20E030E040EA9E
:100D100052E40E9479124B015C01A3019201C301CC
:100D2000B2010E9401102B013C01A5019401C501F3
:100D3000B4010E9401109B01AC01C301B2010E94E9
:100D40007F110E94161422E1209FD001219FB00D37
:100D50001124AA54BE4FBE87AD8729813A814B81A9
:100D60005C810E94791220EC31EE44E65CE40E9442
:100D700001104B015C01C701B6010E94A20F9B014B
:100D8000AC01C501B4010E9479120E94F212ED85F6
:100D9000FE8566877787808B918B2D813E814F8181
:100DA00058852093F3023093F4024093F502509358
:100DB000F60289859A85AB85BC858093EF02909376
:100DC000F002A093F102B093F2022092EC0281E0D3
:100DD00001C080E02E960FB6F894DEBF0FBECDBFE7
:100DE000DF91CF911F910F91FF90EF90DF90CF9007
:100DF000BF90AF909F908F907F906F905F904F903B
:100E00003F902F9008951F920F920FB60F921124CA
:100E10002F933F938F939F93AF93BF9380918103C1
:100E200090918203A0918303B09184033091800359
:100E300023E0230F2D3758F50196A11DB11D2093F6
:100E400080038093810390938203A0938303B093E4
:100E500084038091850390918603A0918703B091CC
:100E600088030196A11DB11D80938503909386038D
:100E7000A0938703B0938803BF91AF919F918F9107
:100E80003F912F910F900FBE0F901F90189526E85D
:100E9000230F0296A11DB11DD2CF1F920F920FB644
:100EA0000F9211242F933F934F935F936F937F93F0
:100EB0008F939F93AF93BF93EF93FF9389E893E052
:100EC0000E943E02FF91EF91BF91AF919F918F9150
:100ED0007F916F915F914F913F912F910F900FBE36
:100EE0000F901F9018951F920F920FB60F9211241A
:100EF0002F938F939F93EF93FF93E0919903F0913A
:100F00009A038081E0919F03F091A00382FD1BC0B2
:100F100090818091A2038F5F8F732091A30382172A
:100F200041F0E091A203F0E0E757FC4F958F8093EA
:100F3000A203FF91EF919F918F912F910F900FBE80
:100F40000F901F9018958081F4CF1F920F920FB6CB
:100F50000F9211242F933F934F935F936F937F933F
:100F60008F939F93AF93BF93CF93DF93EF93FF93B1
:100F70008091E202C0914A04D0E087FF24C0109221
:100F80008500109284008091E2028F5F8093E202DC
:100F90008091E202082E000C990B8C179D0724F417
:100FA0008091E2028C30C4F18091840090918500A0
:100FB000049680349C4908F47AC080918400909112
:100FC0008500049676C08091E202082E000C990BF1
:100FD0008C179D07C4F6E091E2028E2FEE0F990B5D
:100FE000FC01EE0FFF1FE80FF91FEA5DFB4F808148
:100FF00086FFC9CFE091E2028E2FEE0F990BFC0124
:10100000EE0FFF1FE80FF91FEA5DFB4F808160E0E4
:101010008F730E944F01B7CF2091840030918500DB
:10102000E091E2028E2FEE0F990BFC01EE0FFF1FF5
:10103000E80FF91FEA5DFB4F81819281820F931FB8
:101040009093890080938800E091E2028E2FEE0F4A
:10105000990BFC01EE0FFF1FE80FF91FEA5DFB4F34
:10106000808186FF11C0E091E2028E2FEE0F990B76
:10107000FC01EE0FFF1FE80FF91FEA5DFB4F8081B7
:1010800061E08F730E944F01FF91EF91DF91CF914B
:10109000BF91AF919F918F917F916F915F914F9190
:1010A0003F912F910F900FBE0F901F90189580E4E5
:1010B0009CE990938900809388008FEF8093E202EF
:1010C000E3CF10928C0310928B0388EE93E0A0E0A4
:1010D000B0E080938D0390938E03A0938F03B09321
:1010E00090038BE091E090938A038093890385ECD1
:1010F00090E0909396038093950384EC90E0909316
:1011000098038093970380EC90E090939A038093E8
:10111000990381EC90E090939C0380939B0382EC75
:1011200090E090939E0380939D0386EC90E09093D3
:10113000A00380939F031092A2031092A303109226
:10114000A4031092A50380914A048C3098F491E096
:10115000980F90934A0480934B0490E0FC01EE0FAB
:10116000FF1FE80FF91FEA5DFB4F88EB9BE09283BE
:10117000818308958FEF80934B040895CF93DF937D
:10118000CDB7DEB76D970FB6F894DEBF0FBECDBFFB
:10119000789484B5826084BD84B5816084BD85B552
:1011A000826085BD85B5816085BD80916E0081605E
:1011B00080936E0010928100809181008260809304
:1011C0008100809181008160809381008091800006
:1011D0008160809380008091B10084608093B10031
:1011E0008091B00081608093B00080917A0084602B
:1011F00080937A0080917A00826080937A00809157
:101200007A00816080937A0080917A008068809370
:101210007A001092C100E0919903F0919A0382E064
:101220008083E0919503F09196031082E0919703FB
:10123000F091980380E180831092A103E0919D03D7
:10124000F0919E0386E08083E0919B03F0919C03E4
:10125000808180618083E0919B03F0919C03808179
:1012600088608083E0919B03F0919C03808180687B
:101270008083E0919B03F0919C0380818F7D80832C
:1012800080914B048C3008F050C08BE00E94CB0062
:1012900080914B04282F30E0F901EE0FFF1FE20F81
:1012A000F31FEA5DFB4F9081907C9B6090831092CE
:1012B0004C0410924D042CE0622F0E946C11829F0E
:1012C000B001112430E020E0AB01420F531FFA01BE
:1012D000EE0FFF1FE40FF51FEA5DFB4F908196FDB7
:1012E00016C02F5F3F4F2C30310571F781110FC0B1
:1012F0001092800082E0809381001092850010920D
:101300008400B19A80916F00826080936F00E091B9
:101310004B048E2F90E0FC01EE0FFF1FE80FF91F2A
:10132000EA5DFB4F8081806480830E94AE0482E08E
:101330000E94CB0085E00E94CB0083E00E94CB009E
:1013400086E00E94CB0060E082E00E944F0160E0F6
:1013500083E00E944F0187E391E00E94A0040E9475
:10136000CD0289E893E00E941E02892B09F44EC346
:1013700089E893E00E94FC018F3309F04DC087E6B5
:1013800091E00E944F048091EE028823A9F189E642
:1013900091E00E944F0487E791E00E944F04609122
:1013A000E7027091E8028091E9029091EA020E94BE
:1013B000A20F20E030E040EA52E40E94791242E0BD
:1013C0000E94B6048EE791E00E944F046091E30210
:1013D0007091E4028091E5029091E6020E94A20FD2
:1013E00020E030E040EA52E40E94791242E00E949C
:1013F000B60480E891E0B1CF8091ED02811109C07F
:101400009091EC028091EB02981303C08EE691E07C
:10141000C0CF83E791E0BDCF813231F481E080938A
:10142000EE0282E891E099CF8E3729F41092EE0215
:101430008FE891E092CFE0917F038A3019F08D30F0
:1014400009F0D8C2EE2309F48ACFF0E0E150FD4F55
:1014500010822FEF32E03A8329831D8A1E8A1F8A69
:10146000188E812C912C54017501640124013501E1
:101470001D82198A11E089819A81FC012081222331
:1014800009F4A5C00196203219F49A838983F3CF19
:101490003FE9320F3A3108F420522734E9F54AE0A7
:1014A00050E0BE016F5F7F4F0E94630E6330710595
:1014B00031F15CF461307105A1F0D4F4672BD9F6F9
:1014C0001092060110920501D6CF6B357105F1F02F
:1014D0006C357105F1F06A35710569F610930401F8
:1014E000CACF21E030E03093060120930501C3CF3D
:1014F00082E090E09093060180930501BCCFE3E089
:10150000F0E0F0930601E0930501B5CF10920401DD
:10151000B2CF2CE530E0E7CF2D34D1F44AE050E0F3
:10152000BE016F5F7F4F0E94630E6330710539F01B
:101530006530710509F09FCF0E94AE049CCF8AE010
:1015400090E00E94EA008DE991E00E94A00493CF10
:10155000283551F4BE016F5F7F4F0E94130D2B01A0
:101560003C0131E0398B87CF293551F4BE016F5FE3
:101570007F4F0E94130D6B017C0181E08D837BCF37
:10158000293441F4BE016F5F7F4F0E94130D4B0160
:101590005C0171CF2A3451F4BE016F5F7F4F0E940E
:1015A000130D6D8B7E8B8F8B988F65CF263409F052
:1015B0006CCFBE016F5F7F4F0E94130D60930001DF
:1015C00070930101809302019093030154CF6091C5
:1015D000F3027091F4028091F5029091F6020E945C
:1015E000A20F20E030E040EA52E40E9479126B83BF
:1015F00079878D87998F6091EF027091F0028091C9
:10160000F1029091F2020E94A20F20E030E040EA45
:1016100052E40E947912162F072F1C01E091050158
:10162000F0910601FD8FEC8FEC35F105A1F5F989FC
:10163000FF2381F0A30192016B8179858D85998DBE
:101640000E947E116093FB027093FC028093FD0266
:101650009093FE022D81222379F0A7019601612F3C
:10166000702FC1010E947E116093F7027093F802FF
:101670008093F9029093FA028FEF9FEF9093060107
:10168000809305018EEA91E00E94A00410927F03EE
:101690001092FF0264CE3989332361F180910401F5
:1016A0008823B1F02091FB023091FC024091FD02B1
:1016B0005091FE02C301B2010E947F116A8F7B8F9D
:1016C0002C018D81811125C0612E702E61012FC0EA
:1016D0002B8139854D85598DC301B2010E947F113F
:1016E0006A8F7B8F2C019D81992371F3212F302FDD
:1016F000A10117C0ED81EE2309F44AC080910401D5
:10170000882309F43EC0FB81FA8F29852B8F4D84F5
:10171000598C2091F7023091F8024091F9025091D2
:10172000FA02C701B6010E947F113B016C012C8DAA
:101730003D8D2230310598F5812C912C9AEFA92E00
:1017400094E4B92E232B41F0809000019090010188
:10175000A0900201B09003013989311104C08D813C
:10176000882309F48FCF850174019301A6016A8D46
:101770007B8DC2010E949205811184CF0E94CD020F
:10178000F2CF3B813A8F89858B8F4D84598CAECFB8
:101790009B819A8FE985EB8F4D84598C95CF8C8DE9
:1017A0009D8D0297029708F06DCF2B8139854D856D
:1017B000598DC501B4010E947F116D837E838F8393
:1017C0009887212F302FA1016D897E898F89988D6F
:1017D0000E947F11698B7A8B8B8B9C8BA501940166
:1017E000C501B4010E9401104B015C012D893E89A5
:1017F0004F89588DCA01B9010E9401109B01AC01AB
:10180000C501B4010E947F110E9416146D8B7E8B5E
:101810008F8B988F2D813E814F8158856B81798583
:101820008D85998D0E947E114B015C0129893A8931
:101830004B895C89612F702FC1010E947E11A50127
:1018400094010E94FE114B015C012D813E814F816C
:1018500058856A8D7B8DC2010E947E111B012C016F
:1018600029893A894B895C89B301C6010E947E119E
:10187000A20191010E94FE116B017C01EC8DFD8D96
:10188000AC019B01C501B401329709F09CC00E94D4
:101890009B0F181654F02BED3FE049EC50E4C701C4
:1018A000B6010E947E116B017C01A5019401C70164
:1018B000B6010E947E116B017C0120E030E0A9019D
:1018C0000E94C813A701960118160CF050586D8994
:1018D0007E898F89988D0E9401109B01AC010E9426
:1018E0007F110E945D120E94EB127C836B8316169F
:1018F000170624F081E090E09C838B83EB81FC81D0
:10190000BF01FF0F880B990B0E94A20F9B01AC0136
:10191000C701B6010E94791269877A878B879C87F5
:1019200022242394312CB101032C000C880B990B39
:101930000E94A20F29853A854B855C850E94011083
:10194000A50194010E947F116B017C010E94741219
:101950009B01AC016D897E898F89988D0E94011051
:101960002D813E814F8158850E947F112B013C01C2
:10197000C701B6010E9408149B01AC016D897E89E4
:101980008F89988D0E94011029893A894B895C8939
:101990000E947F116D877E878F87988BE090000172
:1019A000F090010100910201109103012D853E8507
:1019B0004F855889C301B2010E949205811110C060
:1019C0000E94CD02EBCF0E94C81387FD6ECF2BED96
:1019D0003FE049EC50E4C701B6010E947F1163CF9C
:1019E000FFEF2F1A3F0A2B813C81221533050CF0A3
:1019F0009ACF48CEEF3708F0B2CCAE2FB0E0A1506E
:101A0000BD4F8C93EF5FE0937F03A9CC80E090E023
:101A1000892B09F4A4CC0E942A02882309F49FCCC4
:101A20000E9400009CCCB0E0A0E0E9E1FDE00C9455
:101A30002C115C017B016115710519F0DB018D939F
:101A40009C9385010F5F1F4FF501D0818D2F90E092
:101A50000E947A0F6C01892BB9F5DD32B9F50F5F61
:101A60001F4FD5011196DC91C1E05801F1E0AF1A8A
:101A7000B10843E050E06CEB70E0C5010E94830FB9
:101A8000892B69F5680182E0C80ED11C45E050E061
:101A900067EB70E0C6010E94830F892B21F4680177
:101AA00097E0C90ED11CE114F10419F0D701CD92D1
:101AB000DC9260E070E080E89FEFC111FFC060E061
:101AC00070E080E89FE7FAC05801BBCFDB3229F411
:101AD00085010E5F1F4FF501D181C0E0C6CF43E005
:101AE00050E064EB70E0C5010E94830F892BE9F0A0
:101AF000F80110E000E020E030E0A9015F01B0ED66
:101B00008B2E8D0E89E08815C8F19C2E689491F873
:101B10008C2F8870C2FF16C0811102C00F5F1F4F4B
:101B20003196D501DC91C92DE9CFE114F10429F0FA
:101B30000E5F1F4FF7011183008360E070E080ECBF
:101B40009FE7BCC0882311F001501109A5E0B0E067
:101B50000E9413119B01AC01220F331F441F551F1C
:101B6000280D311D411D511D283999E939074907B3
:101B700099E15907A8F2C6609C2ED2CFAEEF8A1227
:101B800006C0C3FD3CC09C2E689493F8C9CFDF7D8E
:101B9000D534A9F580818D3239F4C061DF01129608
:101BA000818162E070E006C0DF018B32C1F31196E3
:101BB00061E070E080535D01A61AB70A8A30F8F43C
:101BC000E0E8CE16ECE0DE065CF4B601660F771FA7
:101BD000660F771FC60ED71ECC0CDD1CC80ED11C9D
:101BE0005D01FFEFAF1ABF0A8C9180538A30A8F1D4
:101BF000C4FF03C0D194C194D1080C0D1D1DC1FFB9
:101C000009C0E114F10431F081E0A81AB108D7014C
:101C1000AD92BC92CA01B9010E94A00FC370C3303B
:101C200009F490584B015C0120E030E0A9010E94CA
:101C30009B0F882309F440C0CBEED0E017FF05C00E
:101C4000119501951109C3EDD0E06E01B8E1CB1AF1
:101C5000D10880E2E82EF12C0FC0D501B1CFFE01F2
:101C600025913591459154910E191F09C501B40173
:101C70000E9401104B015C01D501C4010E151F0526
:101C800074F72497F594E794CC16DD06A9F78A2F0C
:101C9000880F8B2F881F8F3F49F020E030E0A9018B
:101CA000C501B4010E949B0F811106C082E290E041
:101CB00090934F0480934E04C501B401CDB7DEB7B5
:101CC000ECE00C944811B0E0A0E0E9E6FEE00C94F2
:101CD00027115C016B017A016115710519F0FB0197
:101CE00091838083E114F10451F0C7010297839737
:101CF00030F040E030E020E090E072C05E01E501AD
:101D00002196F5011081812F90E00E947A0F892B96
:101D1000A9F71D3201F52196F501118101E0E114C9
:101D2000F10409F4DAC0F0E1EF16F10409F082C021
:101D3000103359F488818F7D883509F076C0198178
:101D400022960260F0E1EF2EF12C812C912CA12C37
:101D500088E0B82E8CC01B3221F4E5012296F501F3
:101D6000118100E0DCCFEAE0EE16F10409F4BBC01B
:101D7000F0E1EF16F10409F06DC0E7CF78E0E72E4F
:101D8000F12C812C912CA12C60E1B62E70C03FE982
:101D9000310F3A3128F439EA332E80C021E09AC05D
:101DA000302F3170C114D10431F0222309F1219771
:101DB000F601D183C08327FF21C060E070E080E09E
:101DC00090E8311104C06FEF7FEF8FEF9FE722E2C1
:101DD00030E030934F0420934E04462F372F282FA6
:101DE000642F732F822FCDB7DEB7E1E10C9443113E
:101DF00001FF04C02297F601D183C083332341F051
:101E000090958095709561957F4F8F4F9F4FE5CF4F
:101E100097FFE3CF82E290E090934F0480934E04CB
:101E20006FEF7FEF8FEF9FE7D8CF10E3E114F1045E
:101E300009F4A4CF28E0E216F10409F4A2CF0CF0D3
:101E400092CF812C912CA12CE0E4BE2E82E0E816EA
:101E5000F10469F060E070E080E090E897010F2CF9
:101E6000000C440B550B0E94D21049015A0120E08E
:101E700060E070E0CB0127010F2C000C66087708AA
:101E8000FE0150ED352E310E39E0331540F43FEBB5
:101E9000310F3A3108F07BCF49EC342E310E3E142D
:101EA0001F040CF07DCF27FD15C086169706A806E7
:101EB000B90678F0A30192010E94C210630D711D52
:101EC000811D911D61307105810520E8920708F49C
:101ED00065CF2FEF21961081D3CF103309F42ACF8D
:101EE0002AE0E22EF12C9CEC892E982CA82C9CE068
:101EF000B92EBDCF91110C946E10803219F089501B
:101F00008550C8F70895FB01DC014150504088F02E
:101F10008D9181341CF08B350CF4805E65916134B9
:101F20001CF06B350CF4605E861B611171F3990B2C
:101F30000895881BFCCF0E94DD0F08F481E008950E
:101F4000E89409C097FB3EF4909580957095619553
:101F50007F4F8F4F9F4F9923A9F0F92F96E9BB2709
:101F60009395F695879577956795B795F111F8CF85
:101F7000FAF4BB0F11F460FF1BC06F5F7F4F8F4FF0
:101F80009F4F16C0882311F096E911C0772321F0E6
:101F90009EE8872F762F05C0662371F096E8862F7E
:101FA00070E060E02AF09A95660F771F881FDAF7D5
:101FB000880F9695879597F90895990F0008550F02
:101FC000AA0BE0E8FEEF16161706E807F907C0F0BF
:101FD00012161306E407F50798F0621B730B840BC7
:101FE000950B39F40A2661F0232B242B252B21F4A1
:101FF00008950A2609F4A140A6958FEF811D811D41
:1020000008950E9414100C9488100E947A1038F0E1
:102010000E94811020F0952311F00C9471100C9403
:10202000771011240C94BC100E94991070F3959FA6
:10203000C1F3950F50E0551F629FF001729FBB27BF
:10204000F00DB11D639FAA27F00DB11DAA1F649F5B
:102050006627B00DA11D661F829F2227B00DA11D0E
:10206000621F739FB00DA11D621F839FA00D611D94
:10207000221F749F3327A00D611D231F849F600DB5
:10208000211D822F762F6A2F11249F5750409AF0DE
:10209000F1F088234AF0EE0FFF1FBB1F661F771F6A
:1020A000881F91505040A9F79E3F510580F00C9435
:1020B00071100C94BC105F3FE4F3983ED4F3869506
:1020C00077956795B795F795E7959F5FC1F7FE2BD5
:1020D000880F911D9695879597F9089599278827D8
:1020E000089597F99F6780E870E060E008959FEF9A
:1020F00080EC089500240A9416161706180609069F
:10210000089500240A94121613061406050608956D
:10211000092E0394000C11F4882352F0BB0F40F4F5
:10212000BF2B11F460FF04C06F5F7F4F8F4F9F4F35
:10213000089557FD9058440F551F59F05F3F71F0B7
:102140004795880F97FB991F61F09F3F79F087951E
:102150000895121613061406551FF2CF4695F1DFA7
:1021600008C0161617061806991FF1CF8695710537
:10217000610508940895E894BB2766277727CB016B
:1021800097F90895DB018F939F930E941311BF91DC
:10219000AF91A29F800D911DA39F900DB29F900DB6
:1021A00011240895A1E21A2EAA1BBB1BFD010DC02C
:1021B000AA1FBB1FEE1FFF1FA217B307E407F507F7
:1021C00020F0A21BB30BE40BF50B661F771F881FD3
:1021D000991F1A9469F760957095809590959B0169
:1021E000AC01BD01CF010895052E97FB1EF40094AC
:1021F0000E940B1157FD07D00E94D21007FC03D09C
:102200004EF40C940B1150954095309521953F4F0D
:102210004F4F5F4F089590958095709561957F4FD2
:102220008F4F9F4F08950E945D11A59F900DB49F01
:10223000900DA49F800D911D11240895B7FF0C945B
:1022400013110E941311821B930B08952F923F923A
:102250004F925F926F927F928F929F92AF92BF92B6
:10226000CF92DF92EF92FF920F931F93CF93DF9362
:10227000CDB7DEB7CA1BDB0B0FB6F894DEBF0FBEBF
:10228000CDBF09942A88398848885F846E847D840C
:102290008C849B84AA84B984C884DF80EE80FD800E
:1022A0000C811B81AA81B981CE0FD11D0FB6F89484
:1022B000DEBF0FBECDBFED010895A29FB001B39F59
:1022C000C001A39F700D811D1124911DB29F700D3F
:1022D000811D1124911D0895991B79E004C0991F57
:1022E000961708F0961B881F7A95C9F78095089570
:1022F000EE0FFF1F0590F491E02D09945058BB2775
:10230000AA270E9496110C9488100E947A1038F027
:102310000E94811020F039F49F3F19F426F40C94A8
:1023200077100EF4E095E7FB0C947110E92F0E94F2
:10233000991058F3BA17620773078407950720F0BE
:1023400079F4A6F50C94BB100EF4E0950B2EBA2F81
:10235000A02D0B01B90190010C01CA01A0011124AB
:10236000FF27591B99F0593F50F4503E68F11A1657
:10237000F040A22F232F342F4427585FF3CF4695E8
:1023800037952795A795F0405395C9F77EF41F160A
:10239000BA0B620B730B840BBAF09150A1F0FF0FD4
:1023A000BB1F661F771F881FC2F70EC0BA0F621FC0
:1023B000731F841F48F4879577956795B795F795B0
:1023C0009E3F08F0B0CF9395880F08F09927EE0F45
:1023D0009795879508950E947A1060F080E891E0C3
:1023E00009F49EEF0E94811028F040E851E071F45A
:1023F0005EEF0CC00C9477100C94BB10E92FE078C2
:102400000E94991040F3092E052AB1F326173707C9
:102410004807590738F00E2E07F8E02569F0E02547
:10242000E0640AC0EF6307F8009407FADB01B90122
:102430009D01DC01CA01AD01EF930E9490120E9440
:1024400088100E942E125F91552339F02BED3FE04A
:1024500049E450FD49EC0C947F110895DF93DD278A
:10246000B92FBF7740E85FE31616170648075B07EA
:1024700018F4D92F0E94CD139F938F937F936F935E
:102480000E945614E8E6F0E00E944A130E94881069
:102490002F913F914F915F910E941410DD2351F0D5
:1024A0009058A2EA2AED3FE049EC5FE3D0785D273F
:1024B0000E949611DF910C9488100E94B01390F046
:1024C0009F3748F4911116F40C94BC1060E070E052
:1024D00080E89FE3089526F01B16611D711D811D84
:1024E0000C9421130C943C130E947313E3950C94E9
:1024F0009C130E948D120C9488100E94811058F039
:102500000E947A1040F029F45F3F29F00C9471107A
:1025100051110C94BC100C9477100E94991068F320
:102520009923B1F3552391F3951B550BBB27AA278C
:1025300062177307840738F09F5F5F4F220F331FC6
:10254000441FAA1FA9F335D00E2E3AF0E0E832D08E
:1025500091505040E695001CCAF72BD0FE2F29D091
:10256000660F771F881FBB1F261737074807AB0763
:10257000B0E809F0BB0B802DBF01FF2793585F4FD8
:102580003AF09E3F510578F00C9471100C94BC10F9
:102590005F3FE4F3983ED4F3869577956795B795BA
:1025A000F7959F5FC9F7880F911D9695879597F9C5
:1025B0000895E1E0660F771F881FBB1F621773073E
:1025C0008407BA0720F0621B730B840BBA0BEE1F53
:1025D00088F7E09508950E94F2126894B1110C9466
:1025E000BC1008950E94A11088F09F5798F0B92F51
:1025F0009927B751B0F0E1F0660F771F881F991F38
:102600001AF0BA95C9F714C0B13091F00E94BB100E
:10261000B1E008950C94BB10672F782F8827B85F1E
:1026200039F0B93FCCF3869577956795B395D9F78F
:102630003EF490958095709561957F4F8F4F9F4F99
:102640000895882371F4772321F09850872B762FF3
:1026500007C0662311F499270DC09051862B70E0B6
:1026600060E02AF09A95660F771F881FDAF7880FC7
:102670009695879597F908959F3F31F0915020F4F2
:10268000879577956795B795880F911D969587954E
:1026900097F90895DF93CF931F930F93FF92EF92D3
:1026A000DF927B018C01689406C0DA2EEF010E9454
:1026B0001410FE01E894A59125913591459155910D
:1026C000A6F3EF010E949611FE019701A801DA948A
:1026D00069F7DF90EF90FF900F911F91CF91DF91FD
:1026E00008950C9477100E94A110D8F3E894E0E0CC
:1026F000BB279F57F0F02AED3FE049EC06C0EE0FF4
:10270000BB0F661F771F881F28F0B23A6207730756
:10271000840728F0B25A620B730B840BE3959A95E9
:1027200072F7803830F49A95BB0F661F771F881FA9
:10273000D2F790480C943E13EF93E0FF07C0A2EA53
:102740002AED3FE049EC5FEB0E9496110E94881051
:102750000F90039401FC9058E5E9F0E00C946614A6
:102760000E94A110A0F0BEE7B91788F4BB279F38DC
:1027700060F41616B11D672F782F8827985FF7CF62
:10278000869577956795B11D93959639C8F3089509
:102790000E94DD0F08F48FEF08959B01AC0160E00B
:1027A00070E080E89FE30C9479120E94A11058F128
:1027B0009E5760F19851A0F0E9F0983020F5092E6D
:1027C0009927660F771F881F991F0A94D1F712C0A7
:1027D000062E672F782F8827985F11F4000C07C00A
:1027E000993FB4F38695779567959395D9F7611DD1
:1027F000711D811D3EF490958095709561957F4F78
:102800008F4F9F4F089568940C94BC100C94BB108C
:102810009F930E9473130F9007FCEE5F0C949C1320
:1028200019F416F40C9477100C943C130E94A11028
:10283000B8F39923C9F3B6F39F57550B87FF0E944E
:102840005F140024A0E640EA9001805856959795C1
:1028500028F4805C660F771F881F20F02617370743
:10286000480730F4621B730B840B202931294A2B53
:10287000A69517940794202531254A2758F7660F07
:10288000771F881F20F026173707480730F4620BA0
:10289000730B840B200D311D411DA09581F7B901EB
:1028A000842F9158880F9695879508959B01AC01C8
:1028B0000C9401100E94DD0F880B990B0895915024
:1028C0005040660F771F881FD2F708959F938F930C
:1028D0007F936F93FF93EF939B01AC010E940110D4
:1028E000EF91FF910E944A132F913F914F915F9179
:0828F0000C940110F894FFCFD5
:1028F80000007A4401FFFF000000006002C001ED03
:1029080001AD021E02FC0110020D0A005B444542A3
:1029180055475D2050454E205550006E616E006948
:102928006E66006F7666000A4772626C2D506C6F97
:10293800747465722D44756D6D79202850494F293E
:102948002076302E332052656164792028427566DE
:10295800666572656429003C00486F6C64004964D0
:102968006C650052756E007C4D506F733A002C00F8
:102978003E005B4D53475D20506175736564005B95
:102988004D53475D20526573756D6564005B444522
:102998004255475D2050454E20444F574E006F6BBF
:0229A80000002D
:00000001FF
